S0240000473A5C43414E4E6F64655C466C6F6F72315C62696E5C50726F6A6563742E616273EB
S123C000FEC033FDC031270E35ED31EC3169700434FB310326F2FEC035EC31270BED3118C8
S123C0200A30700434F920F13DCF090007D206C03B0001C037C17B090000011B9CC7876C72
S123C04082C6056C8016C0912045F60144260916C0AC6C801D0144FED600C11D2623EC8036
S123C0608C0005271C4C0101EC822623C7873BCE402034375237C60516C1041B86C601200A
S123C0800BEC808C00052603790001C7876C8220B9790002C6FF5B0316C0D11F014010FB2C
S123C0A0CC01C37B01447A014510EF3DF60900B7143B4D01FE83000516C167031003080DEE
S123C0C04C010220084C010420034C0108EC80303DC6017B01401F014101FBCC07C07B0154
S123C0E0417A0142C6237B0143C6107B014B587B01507901547B01517A01557901401E0191
S123C1004101FB3D6CADF601462604C6012031F601467B014AF6014A6B82EE897E0172EE82
S123C120877E0170A6817A0174A6857A017CA6867A017D7B0146F60146E482E18226F7C77D
S123C1401B833DF6016CC40F37C720118737B746C30164B745E6006BEA09003352E180256D
S120C160EB1C014401320B3037E1310460022504E61F2002E6E51AE5330500000003
S105FFB2C14345
S105FFFEC02914
S9030000FC
